:020000040800F2
:1000000000A000204D1A0008690300086B030008D7
:100010006D0300086F030008710300080000000072
:100020000000000000000000000000007303000852
:10003000750300080000000077030008790300083A
:100040009D1A00089D1A00089D1A000881030008E7
:100050009D1A00089D1A0008910300089D1A0008C7
:100060009D1A00089D1A00089D1A00089D1A000894
:100070009D1A00089D1A00089D1A00089D1A000884
:100080009D1A00089D1A00089D1A00089D1A000874
:100090009D1A00089D1A00089D1A00089D1A000864
:1000A0009D1A00089D1A00089D1A00089D1A000854
:1000B0009D1A00089D1A00089D1A00089D1A000844
:1000C0009D1A00089D1A00089D1A00089D1A000834
:1000D0009D1A00089D1A00089D1A00089D1A000824
:1000E0009D1A00089D1A00089D1A00089D1A000814
:1000F0009D1A00089D1A00089D1A00089D1A000804
:100100000000000000000000000000009D1A000830
:100110009D1A00089D1A00089D1A00089D1A0008E3
:100120009D1A00089D1A00089D1A00089D1A0008D3
:100130009D1A00089D1A0008000000000000000041
:100140009D1A00089D1A00089D1A00080000000072
:10015000000000000000000000000000000000009F
:1001600000000000000000009D1A00089D1A000811
:100170009D1A0008000000000000000000000000C0
:08018000000000009D1A0008B8
:1001880010B5054C237833B9044B13B10448AFF3C9
:1001980000800123237010BD300000200000000003
:1001A800E81A000808B5034B1BB103490348AFF32D
:1001B800008008BD0000000034000020E81A000894
:1001C80008B5012000F0F2F9012000F075FAFEE709
:1001D80000B591B0012301934FF4803302930022BC
:1001E80003920222089209934FF4E0130A9301A89C
:1001F80000F0A6FC80B90F230B9302210C91002379
:100208000D934FF480620E920F930BA800F0EAFF53
:1002180020B911B05DF804FBFFF7D2FFFFF7D0FF5C
:1002280000B583B000F054FC002000F0BFF90120B5
:1002380000F0BCF9022000F0B9F9FFF7C9FF2E4B16
:10024800DA6942F08052DA61DB6903F08053019386
:10025800019B2A4B5B6813F0020F30D0274A1368C2
:1002680043F008031360022000F026FA244B012211
:100278001A600021084600F04DFA002000F094FAB8
:100288000128FAD01BE0002000F036FA642000F0C4
:1002980043FC1B4B1B6833B1194B1A6801321A60B7
:1002A8001B68322B13D0174B1B68BBB9164B1B6846
:1002B800002BE8D0002000F00FFA00F0C9F8012167
:1002C800002000F027FA104B00221A60EEE7022007
:1002D80000F002FA0A4B00221A60E4E7094B1A6898
:1002E80001321A601B68322BE0D1032000F0F4F9C8
:1002F800044B00221A60D9E7001002400070004049
:1003080050000020540000204C00002008B500F0E8
:10031800F1FB08BD08B5002000F048F9002000F006
:10032800CBF9032000F042F9032000F0C5F9024B95
:1003380001221A6008BD00BF54000020012800D027
:10034800704708B5002000F02FFA0128FAD00020E5
:1003580000F02CF9014B01221A6008BD4C00002066
:100368007047FEE7FEE7FEE7FEE770477047704715
:1003780008B501F013FB08BD08B5024800F066FB9C
:1003880008BD00BF5800002008B5012001F08EFA12
:1003980008BD000000B59BB00C23109300231793F1
:1003A80001221692139310A800F0CAFBF8B94FF473
:1003B800803301934FF40073029301A801F064F8AD
:1003C800C0B94FF4004292FAA2F2B2FA82F20B4B91
:1003D80013449B0001221A6000220F21032001F020
:1003E80085FA032001F0B6FA1BB05DF804FBFFF7AD
:1003F800E7FEDCE7FFF7E4FEE3E700BF00819010CB
:1004080000B591B00023009301A800F0BFFF0123BD
:1004180001934FF4803302930223089301A800F05C
:100428008FFB78B969460BA801F010F801230B93EC
:1004380002230C9300990BA800F0D4FE28B911B040
:100448005DF804FBFFF7BCFEECE7FFF7B9FEF6E743
:1004580030B58DB04D4C636943F400336361636913
:1004680003F400330193019B636943F480236361C0
:10047800636903F480230293029B636943F40023B6
:100488006361636903F400230393039B636943F483
:1004980080136361636903F480130493049B6369A5
:1004A80043F400136361636903F400130593059B28
:1004B800636943F480036361636903F4800306930B
:1004C800069B032308930A93002509954FF6FF73AB
:1004D800079307A94FF0904001F006F907A92C48A7
:1004E80001F002F907A92B4801F0FEF807A92A48EC
:1004F80001F0FAF807A9294801F0F6F807A92848F1
:1005080001F0F2F8636923F400336361636923F44B
:1005180080236361636923F400236361636923F4BF
:1005280080136361636923F400136361636923F4CF
:10053800800363611B481C4B036045607F23836015
:100548004FF49873C36005614561856100F06DF9EA
:10055800C0B9144C204600F041FA00224AF21701B3
:10056800204600F0C5F90121002000F0D3F8012150
:10057800084601F017FAFFF743FF204600F02EFA6D
:100588000DB030BDFFF71CFEE3E700BF00100240CE
:100598000004004800080048000C0048001000480B
:1005A80000140048580000200028004070B58EB0A4
:1005B800044600BB3D4B5A6942F400125A615B691C
:1005C80003F400130193019B394B33F81460099627
:1005D80001230A930B9303230C93364D09A955F86D
:1005E800240001F081F80022314655F8240001F07A
:1005F8004EF90EB070BD012816D002281FD003286E
:1006080028D0042831D005283AD0062843D0072816
:10061800DAD1264B5A6942F400125A615B6903F435
:1006280000130893089BCFE7204B5A6942F4001245
:100638005A615B6903F400130293029BC4E71B4BE6
:100648005A6942F400125A615B6903F40013039378
:10065800039BB9E7154B5A6942F400125A615B696A
:1006680003F400130493049BAEE7104B5A6942F459
:1006780000125A615B6903F400130593059BA3E715
:100688000A4B5A6942F400125A615B6903F4001379
:100698000693069B98E7054B5A6942F400125A6183
:1006A8005B6903F400130793079B8DE70010024072
:1006B800001B00080400002008B50122044B33F891
:1006C8001010044B53F8200001F0E1F808BD00BFFA
:1006D800001B00080400002008B50022044B33F872
:1006E8001010044B53F8200001F0D1F808BD00BFEA
:1006F800001B00080400002008B5044B33F8101054
:10070800034B53F8200001F0C7F808BD001B000890
:100718000400002030B589B00C46054648B91F4B87
:100728005A6942F400325A615B6903F40033019359
:10073800019B1A4B9A6942F001029A619B6903F086
:1007480001030293029B1CB1012C10D009B030BDEB
:1007580001230393002304930223059303230693A1
:1007680003A90F4B53F8250000F0BEFFECE7012367
:10077800039300240594032306930A4B049303A9C7
:10078800074B53F8250000F0AFFF22460F21062043
:1007980001F0ACF8062001F0DDF8D7E700100240C0
:1007A800000000200000111008B50121024B53F889
:1007B800200001F065F808BD0000002038B50446A7
:1007C8000268D36823F0A003D36000F09FF90546C0
:1007D8002368DB6813F0200F07D100F097F9401B5E
:1007E800B0F57A7FF4D9032000E0002038BD38B591
:1007F8000368DA6812F0400F01D0002038BD0446C3
:100808004FF0FF32DA6000F081F905462368DB68B3
:1008180013F0400F07D100F079F9431BB3F57A7F45
:10082800F4D90320EAE70020E8E738B500285CD0CF
:100838000446437F002B41D0022363772368CA22F2
:100848005A62236853225A622046FFF7D0FF0546B2
:10085800002837D12268936823F4E00323F040038B
:10086800936021688A686368206903436069034369
:1008780013438B602368E2681A6122681369A168D0
:1008880043EA014313612268D36823F08003D360ED
:1008980023689B6813F0200F1BD02268136C23F485
:1008A800802313642268136CA1690B4313642368C3
:1008B800FF225A6201236377284638BD0377FFF782
:1008C80069FDB9E72368FF225A620423637701258B
:1008D800F2E72046FFF772FF0028DED02368FF22E8
:1008E8005A62042363770125E6E70125E4E700005F
:1008F800F8B5037F012B6DD004460E46154601233B
:100908000377022343770368CA225A620368532293
:100918005A6203689B6813F4806F15D000F0F6F8EC
:1009280007462368DB6813F0040F0DD000F0EEF8DB
:10093800C01BB0F57A7FF4D92368FF225A620320DE
:1009480060770023237744E02268936823F4806368
:1009580093602268D368DBB263F49063D36000F0DD
:10096800D5F807462368DA6812F0040F0DD100F0B5
:10097800CDF8C01BB0F57A7FF4D92368FF225A62FC
:10098800032060770023237723E05E612268936861
:1009980023F007039360226893681D4395600E4B0C
:1009A8001A6842F480121A609A6842F480129A60B7
:1009B8002268936843F4804393602268936843F401
:1009C800806393602368FF225A62012363770020C3
:1009D8002077F8BD0220FCE70004014038B5037F0A
:1009E800012B31D0044601230377022343770368A0
:1009F800CA225A62036853225A620268936823F42F
:100A0800806393600268936823F48043936000F0E6
:100A18007DF805462368DA6812F0040F0DD100F05E
:100A280075F8431BB3F57A7FF4D92368FF225A621D
:100A3800032060770023237705E0FF225A62012311
:100A480063770020207738BD0220FCE710B5044604
:100A58000368DB6813F4806F06D1084B4FF48012EB
:100A68005A610123637710BDFFF754FC2268D368ED
:100A7800DBB263F49063D360EFE700BF000401408A
:100A88007047000010B504460E4B18784FF47A737F
:100A9800B3FBF0F30C4A1068B0FBF3F000F068FF0A
:100AA80068B90F2C01D901200AE0002221464FF035
:100AB800FF3000F01BFF054B1C60002000E0012008
:100AC80010BD00BF240000202C00002028000020BA
:100AD80008B5074A136843F010031360032000F0B9
:100AE800F3FE0F20FFF7CEFFFFF7CAFF002008BD77
:100AF80000200240034A1168034B1B780B44136023
:100B0800704700BF7800002024000020014B1868BF
:100B1800704700BF7800002038B50446FFF7F6FF9D
:100B28000546B4F1FF3F02D0044B1B781C44FFF785
:100B3800EDFF401BA042FAD338BD00BF24000020BF
:100B4800002800F0018370B582B00446036813F0F2
:100B5800010F3BD0B54B5B6803F00C03042B1ED090
:100B6800B24B5B6803F00C03082B13D06368B3F532
:100B7800803F68D0002B40F0928003F1804303F55A
:100B880004331A6822F480321A601A6822F4802228
:100B98001A605DE0A54B5B6813F4803FE6D04FF424
:100BA800003393FAA3F3A14B19684FF4003393FA77
:100BB800A3F3B3FA83F303F01F03012202FA03F34A
:100BC8000B4203D06368002B00F0C082236813F047
:100BD800020F00F0C580954B5B6813F00C0F00F016
:100BE8009C80924B5B6803F00C03082B00F08F800D
:100BF8002369002B00F0F280012292FAA2F3B3FAE3
:100C080083F303F1845303F584139B001A60FFF701
:100C18007DFF0546022393FAA3F3844B1968022348
:100C280093FAA3F3B3FA83F303F01F03012202FA42
:100C380003F30B4240F0C380FFF768FF401B022814
:100C4800E8D903208BE2794A136843F480331360B0
:100C5800764AD36A23F00F03A1680B43D362636813
:100C6800002B36D0FFF752FF05464FF4003393FAB6
:100C7800A3F36E4B19684FF4003393FAA3F3B3FA56
:100C880083F303F01F03012202FA03F30B429DD101
:100C9800FFF73CFF401B6428E7D903205FE2B3F568
:100CA800A02F09D0614B1A6822F480321A601A68A2
:100CB80022F480221A60CBE703F18043A3F53C338A
:100CC8001A6842F480221A601A6842F480321A6064
:100CD800BEE7FFF71BFF05464FF4003393FAA3F373
:100CE800524B19684FF4003393FAA3F3B3FA83F322
:100CF80003F01F03012202FA03F30B423FF466AF2D
:100D0800FFF704FF401B6428E6D9032027E2474B7E
:100D18005B6813F4803F7FF46BAF022393FAA3F36D
:100D2800424B1968022393FAA3F3B3FA83F303F04F
:100D38001F03012202FA03F30B4203D023699342F3
:100D480040F006823948036823F0F8036169F82205
:100D580092FAA2F2B2FA82F201FA02F213430360A3
:100D6800236813F0080F00F08D80A369002B61D071
:100D7800012191FAA1F2B2FA82F22D4B13449B00A1
:100D88001960FFF7C3FE0546022393FAA3F293FA0C
:100D9800A3F293FAA3F2254A516A93FAA3F3B3FA9A
:100DA80083F303F01F03012202FA03F30B4269D114
:100DB800FFF7ACFE401B0228E6D90320CFE11B4811
:100DC800036823F0F8036169F82292FAA2F2B2FAF2
:100DD80082F201FA02F213430360C1E7012393FA96
:100DE800A3F3B3FA83F303F1845303F584139B004D
:100DF80000221A60FFF78AFE0546022393FAA3F33E
:100E08000A4B1968022393FAA3F3B3FA83F303F0A6
:100E18001F03012202FA03F30B42A1D0FFF776FE6B
:100E2800401B0228E9D9032099E100BF00100240C5
:100E380020819010012292FAA2F2B2FA82F2B74B04
:100E480013449B0000221A60FFF760FE0546022348
:100E580093FAA3F293FAA3F293FAA3F2B04A516A6F
:100E680093FAA3F3B3FA83F303F01F03012202FA00
:100E780003F30B4206D0FFF749FE401B0228E6D9D0
:100E880003206CE1236813F0040F00F0A980A44B41
:100E9800DB6913F0805F0BD1A14BDA6942F0805215
:100EA800DA61DB6903F080530193019B012500E0BF
:100EB80000259C4B1B6813F4807F10D0E368012B3E
:100EC80021D063BB03F1804303F504331A6A22F08F
:100ED80001021A621A6A22F004021A6218E0914AA0
:100EE800136843F480731360FFF710FE06468D4BBA
:100EF8001B6813F4807FE1D1FFF708FE801B64288C
:100F0800F5D903202BE1864A136A43F001031362E3
:100F1800E368002B3CD0FFF7F9FD06462EE0052BD1
:100F280009D07F4B1A6A22F001021A621A6A22F06B
:100F380004021A62ECE77A4B1A6A42F004021A6257
:100F48001A6A42F001021A62E2E7022393FAA3F353
:100F5800734B596A022393FAA3F3B3FA83F303F0AA
:100F68001F03012202FA03F3194238D1FFF7CEFD1D
:100F7800801B41F28833984200F2EC80022393FAF6
:100F8800A3F293FAA3F3002BDFD0654B196AE1E7CC
:100F9800FFF7BCFD064618E0022393FAA3F3604B63
:100FA800596A022393FAA3F3B3FA83F303F01F03F6
:100FB800012202FA03F3194211D0FFF7A7FD801BA3
:100FC80041F28833984200F2C780022393FAA3F2D1
:100FD80093FAA3F3002BDFD0514B196AE1E7B5BBB5
:100FE800E369002B00F0BA804D4A526802F00C0207
:100FF800082A00F09980022B2FD04FF0807393FAC3
:10100800A3F3B3FA83F303F1845303F584139B002A
:1010180000221A60FFF77AFD04464FF0007393FA36
:10102800A3F33F4B19684FF0007393FAA3F3B3FA95
:1010380083F303F01F03012202FA03F319426BD072
:10104800FFF764FD001B0228E7D9032087E0344A34
:10105800D36923F08053D361C2E74FF0807393FACA
:10106800A3F3B3FA83F303F1845303F584139B00CA
:1010780000221A60FFF74AFD05464FF0007393FA05
:10108800A3F3274B19684FF0007393FAA3F3B3FA4D
:1010980083F303F01F03012202FA03F3194206D077
:1010A800FFF734FD401B0228E7D9032057E01C490D
:1010B8004B6823F47413626A206A024313434B603B
:1010C8004FF0807393FAA3F3B3FA83F303F18453D5
:1010D80003F584139B0001221A60FFF717FD0446ED
:1010E8004FF0007393FAA3F30D4B19684FF0007398
:1010F80093FAA3F3B3FA83F303F01F03012202FA6E
:1011080003F3194206D1FFF701FD001B0228E7D9B6
:10111800032024E0002022E0002020E0208190101D
:101128000010024000700040012B1AD0104B5B6881
:1011380003F48031226A914215D103F47013626A74
:10114800934212D100200AE001207047012006E0F6
:10115800012004E0032002E0032000E0002002B0A8
:1011680070BD0120FBE70120F9E70120F7E700BF88
:1011780000100240164B5B6803F00C02082A01D0ED
:101188001448704703F470114FF4701292FAA2F2E7
:10119800B2FA82F221FA02F20F49885C0C4AD26A4A
:1011A80002F00F020F2191FAA1F1B1FA81F1CA40C0
:1011B8000A498A5C13F4803F05D0064BB3FBF2F36F
:1011C80000FB03F07047064B03FB00F0704700BFBD
:1011D8000010024000127A00101B0008201B0008B3
:1011E80000093D00002800F0BE8070B50D46044699
:1011F800614B1B6803F007038B420BD25E4A1368EE
:1012080023F007030B431360136803F007038B42B3
:1012180040F0AB80236813F0020F06D0574A53689A
:1012280023F0F003A1680B435360236813F0010F08
:101238005AD06368012B2DD0022B40D0022292FA9B
:10124800A2F24E4A1068022292FAA2F2B2FA82F28E
:1012580002F01F02012101FA02F2104200F0878019
:1012680046494A6822F0030213434B60FFF74EFCDD
:101278000646424B5B6803F00C036268B3EB820FCF
:1012880032D0FFF743FC801B41F288339842F0D9F3
:10129800032067E04FF4003292FAA2F2374A10684E
:1012A8004FF4003292FAA2F2B2FA82F202F01F026E
:1012B800012101FA02F20242D2D1012052E04FF09C
:1012C800007292FAA2F22D4A10684FF0007292FA58
:1012D800A2F2B2FA82F202F01F02012101FA02F22E
:1012E8001042BDD101203DE0234B1B6803F00703EA
:1012F800AB420AD9204A136823F007032B43136033
:10130800136803F00703AB4233D1236813F0040FCB
:1013180006D01A4A536823F4E063E1680B4353602C
:10132800236813F0080F07D0144A536823F4605356
:10133800216943EAC1035360FFF71CFF0F4B5B6849
:1013480003F0F003F02292FAA2F2B2FA82F2D3404A
:101358000B4AD35CD8400B4B18600B4B1868FFF74F
:1013680091FB002070BD012070470120FAE70120A1
:10137800F8E70120F6E700BF002002400010024015
:10138800301B00082C000020280000200F230360D9
:101398002D4B1B6813F4802F36D04FF4A0234360E5
:1013A800294AD36A03F00F038360136813F0010F0F
:1013B80036D00123036124490B6803F0F803F822AF
:1013C80092FAA2F2B2FA82F2D34043610B6A13F0A6
:1013D800040F28D00523C3601B4B5B6A13F0010F71
:1013E8002CD001238361184B1B6813F0807F28D011
:1013F8000223C361144A536803F4803303625368B9
:1014080003F47013436270470F4B1B6813F4803F5B
:1014180003D04FF480334360C2E700234360BFE743
:1014280000230361C7E7084B1B6A13F0010F02D0C2
:101438000123C360D0E70023C360CDE700238361A5
:10144800D1E70123C361D5E7001002400F230360F1
:101458000B4B5A6802F0030242605A6802F0F0022D
:1014680082605A6802F4E062C2605B68DB0803F4D9
:10147800E0630361034B1B6803F007030B607047CD
:101488000010024000200240F0B583B00446036813
:1014980013F4803F48D0914BDB6913F0805F40F034
:1014A800D4808E4BDA6942F08052DA61DB6903F04E
:1014B80080530193019B0125894B1B6813F4807F9E
:1014C80000F0C580854B1B6A13F4407322D0626814
:1014D80002F440729A421DD08048016A21F4407695
:1014E8004FF4803393FAA3F2B2FA82F27D4F3A4472
:1014F80092004FF0010CC2F800C093FAA3F3B3FABC
:1015080083F33B449B0000221A60066211F0010F2E
:1015180040F0B280714A136A23F4407361680B4348
:101528001362002D40F0CF80236813F0010F06D01E
:101538006A4A136B23F00303A1680B431363236800
:1015480013F0020F06D0654A136B23F44033E168A9
:101558000B431363236813F0040F06D05F4A136B21
:1015680023F4402321690B431363236813F0200FEE
:1015780006D05A4A136B23F01003E1690B43136337
:10158800236813F4003F06D0544A536823F48003B9
:10159800A16B0B435360236813F0400F06D04F4AEA
:1015A800136B23F02003216A0B431363236813F0A2
:1015B800080F06D0494A136B23F4401361690B43A3
:1015C8001363236813F0100F06D0444A136B23F4F7
:1015D8004003A1690B431363236813F4007F06D00B
:1015E8003E4A536823F40003E16A0B4353602368BF
:1015F80013F0800F06D0394AD36A23F4F873616A6E
:101608000B43D362236813F4807F06D0334AD36A2E
:1016180023F47853A16A0B43D362236813F4805FE1
:1016280006D02E4A136B23F48073216B0B4313638C
:10163800236813F4005F4DD0284A136B23F400731A
:10164800616B0B431363002045E0002534E7244A0F
:10165800136843F480731360FFF758FA0646204B6B
:101668001B6813F4807F7FF42DAFFFF74FFA801BC0
:101678006428F4D903202EE0FFF748FA064618E05C
:10168800022393FAA3F3154B596A022393FAA3F39F
:10169800B3FA83F303F01F03012202FA03F30B42A8
:1016A8007FF438AFFFF732FA801B41F28833984253
:1016B8000ED8022393FAA3F293FAA3F3002BDFD0F8
:1016C800064B196AE1E7D36923F08053D3612BE70E
:1016D800032000E0002003B0F0BD00BF001002406E
:1016E8000070004000819010F0B583B0002336E010
:1016F800042400E00024B4403C4302355C4E46F824
:1017080025405C4C2568D44325EA02064F6817F447
:10171800803F01D042EA0506564D2E606D6804EA06
:1017280005064F6817F4003F01D042EA0506514DFF
:101738006E60AD6804EA05064F6817F4801F01D093
:1017480042EA05064B4DAE60ED682C404E6816F433
:10175800001F01D042EA0504464AD46001330A68F2
:1017680032FA03F400F0818001249C402240F5D035
:101778004D686E1E012E03D9112D01D0122D12D1E4
:1017880086685F000325BD4026EA0506CD68BD4092
:1017980035438560466826EA04064D68C5F300149B
:1017A8009C4034434460C7685E000325B540EC4361
:1017B80027EA05078D68B5403D43C5604D68022D91
:1017C80001D0122D13D1DF08083750F827E003F0B5
:1017D80007054FEA850C0F2505FA0CF52EEA050ECC
:1017E8000D6905FA0CF545EA0E0540F8275005681D
:1017F80025404C6804F00304B4402C4304604C6852
:1018080014F0805FAAD01C4CA56945F00105A561BC
:10181800A46904F001040194019C9D08AE1C144CB9
:1018280054F8267003F00304A6000F24B44027EAF6
:101838000407B0F1904F3FF45DAF104CA0420ED0BA
:1018480004F58064A0420CD004F58064A0420AD05C
:1018580004F58064A0423FF44BAF05244BE7012414
:1018680049E7022447E7032445E703B0F0BD00BF7A
:10187800000001400004014000100240000400483C
:101888000369194201D001207047002070470AB14E
:101898008161704781627047436901EA030221EA66
:1018A800030141EA024181617047000008B5054B18
:1018B8005B69034200D108BD024B5861FEF73EFD4B
:1018C800F9E700BF00040140074AD36823F4E06346
:1018D8001B041B0C000200F4E060034343F0BF63E9
:1018E80043F40033D360704700ED00E030B4174B89
:1018F800DB68C3F30223C3F10704042C28BF0424C4
:101908001D1D062D18D9033B4FF0FF3505FA04F4C9
:1019180021EA0401994005FA03F322EA0303194373
:1019280000280BDB0901C9B200F1604000F56140F5
:1019380080F8001330BC70470023E5E700F00F0083
:101948000901C9B2024B1954F4E700BF00ED00E0E9
:1019580014ED00E0002807DB00F01F024009012316
:101968009340024A42F82030704700BF00E100E08F
:101978000138B0F1807F0AD2064B5860064AF02140
:1019880082F823100020986007221A60704701200F
:10199800704700BF10E000E000ED00E008B5FEF77A
:1019A800B5FC08BD0B4A136823F003030343136017
:1019B800094A136943F004031361012908D040BFA1
:1019C80020BF20BF044A136923F004031361704742
:1019D80030BFF7E70070004000ED00E01549D1F88E
:1019E800883043F47003C1F88830134B1A6842F00A
:1019F80001021A605868114A02405A601A6822F0B7
:101A0800847222F480321A601A6822F480221A60E2
:101A18005A6822F4FE025A60DA6A22F00F02DA6289
:101A2800186B074A02401A6300229A604FF000635D
:101A38008B60704700ED00E0001002400CC07FF89A
:101A4800CCFC00FFDFF834D0002103E00C4B5B58DE
:101A5800435004310B480C4B42189A42F6D30B4AB8
:101A680002E0002342F8043B094B9A42F9D3FFF7FE
:101A7800B5FF00F011F8FEF7D3FBFEE700A0002049
:101A8800481B000800000020300000203000002023
:101A98007C000020FEE7000070B50D4D0D4C641B66
:101AA800A4100026A64209D10B4D0C4C00F018F8E2
:101AB800641BA4100026A64205D170BD55F8043B4E
:101AC80098470136EEE755F8043B98470136F2E7A8
:101AD800401B0008401B0008401B0008441B00086E
:101AE800F8B500BFF8BC08BC9E467047F8B500BF03
:081AF800F8BC08BC9E467047D3
:101B000000020001000400800008004000100020D6
:101B100002030405060708090A0B0C0D0E0F10102E
:101B20000102030405060708090A0B0C0D0E0F102D
:101B3000000000000000000001020304060708097D
:041B4000AD010008EB
:041B4400890100080B
:101B4800000000480010004800100048001000483D
:101B5800001000480010004800100048001000481D
:101B680000100048010000001000000000127A0078
:0400000508001A4D88
:00000001FF
